:100000000C94D1000C9400000C9400000C9400009F
:100010000C9400000C9400000C9400000C94000060
:100020000C9400000C9400000C9400000C94000050
:100030000C9400000C9400000C9400000C94000040
:100040000C9400000C9400000C9400000C94000030
:100050000C940000000000000000000000003100CF
:1000600032003300340035003600370038003900E4
:100070003000202046696E616C2050726F6A6563A3
:1000800074200048616D69616E204768617A69700B
:100090006F6F720020456E74657220506173776FC8
:1000A00072642000202020506173776F7264204FAB
:1000B0004B2020200020506173776F7264204E4FD8
:1000C00054204F4B202000507265737320312074F0
:1000D0006F206F70656E00202074686520646F6FFC
:1000E0007221202000427574746F6E203120686187
:1000F00073206E6F74006265656E20707265737335
:100100006564002020205761726E696E672120208F
:100110002000436865636B20436F6E6E656374698E
:100120006F6E2E2E2E0054686520646F6F72206FE4
:1001300070656E656421000080C00A0004005400F0
:100140001100600172001100710183001100820131
:1001500072001100930183001000A40194001100AB
:10016000B401A4001200C501B5001000D701C700FA
:100170000E00E701D7001100F501E5000D000602B1
:10018000F6000F00130203011400220212010F00F7
:100190003602030111004502260102005C0238010B
:1001A0000000F894EE27ECBBF1E0FBBFEBBFE5BF2E
:1001B0008DE0A2E0BB27ED938A95E9F780E094E01B
:1001C000A0E6ED930197E9F7EAE3F1E085919591D7
:1001D000009761F0A591B59105901590BF01F001D0
:1001E00005900D920197E1F7FB01F0CFEFE5EDBF30
:1001F000E4E0EEBFC0E6D1E00C940A02AB9AAC9A00
:10020000AD9AAE98989903C0E3E0F0E0089599990B
:1002100003C0E2E0F0E008959A9903C0E1E0F0E065
:100220000895AB9AAC9AAD98AE9A989903C0E6E05F
:10023000F0E00895999903C0E5E0F0E008959A99F7
:1002400003C0E4E0F0E00895AB9AAC98AD9AAE9AA2
:10025000989903C0E9E0F0E00895999903C0E8E0B7
:10026000F0E008959A9903C0E7E0F0E00895AB98B4
:10027000AC9AAD9AAE9A999903C0E0E0F0E0089587
:100280009A9903C0EAE0F0E00895ECE0F0E0089508
:10029000BA93AA93A881B981119721F4AEE5B0E091
:1002A0000E94A903A881B981129721F4A0E6B0E0C9
:1002B0000E94A903A881B981139721F4A2E6B0E0B6
:1002C0000E94A903A881B981149721F4A4E6B0E0A3
:1002D0000E94A903A881B981159721F4A6E6B0E090
:1002E0000E94A903A881B981169721F4A8E6B0E07D
:1002F0000E94A903A881B981179721F4AAE6B0E06A
:100300000E94A903A881B981189721F4ACE6B0E056
:100310000E94A903A881B981199721F4AEE6B0E043
:100320000E94A903E881F981309721F4A0E7B0E0A9
:100330000E94A903A881B9811A9721F46624772421
:100340000E946E030C946C03BA93AA93E1E0F0E070
:100350002F01EC81FD81E415F50574F0AF9AAA81B7
:10036000BB810E942004AF98A881B9810E9420041B
:10037000F20131962F01EDCF26960895BA93AA93F4
:1003800044245524E881F981E415F505E4F0DA9A6E
:100390000E94E803DB9A0E94E803D99A0E94E803CE
:1003A000D89A0E94E803DA980E94E803DB980E943A
:1003B000E803D9980E94E803D8980E94E803F20164
:1003C00031962F01DFCF0C946C03EAE0F0E0FA9352
:1003D000EA93EEE1F0E0FA93EA93AEE1B0E0B4DF45
:1003E0000E94EC03A0E6B1E00E94F003A1E7B1E0B7
:1003F0000E94F50373D1A4EFB1E00E9420040E9493
:10040000EC03A2E8B1E00E94F003A3E9B1E00E948E
:10041000F50308950DE010E0EFE0EABBE0E0EBBB90
:10042000E7BBE8BBE8EFE4BBE7E0E5BBE8E2E1BB44
:10043000E8E0E2BBE0E0E3BFE2BFECBFEFBDEEBD52
:10044000EDBDECBDE7BDE6BDEBBDEABDE9BDE8BD78
:10045000E2BDE5BDE4BDE3BDE9BFE5BFE4BFEAB988
:10046000E0E8E8B9E0E0E0BFE6B9EDB9E6BFA0E159
:1004700083D16624772432D1A8DFBCD19598E0E0FF
:10048000E0935A02E0935B02D99ADA98DB98D89805
:10049000E0915A02F0915B02309709F084C0AEDE21
:1004A0008F019AD1A4EAB1E045D1ECE0F0E0E01789
:1004B000F10719F4A3DE8F0175C0F30131963F01F6
:1004C0006A92A1E0FAD0D801E3DEE1E0F0E0E615BF
:1004D000F70509F45801E2E0F0E0E615F70509F444
:1004E0006801E3E0F0E0E615F70521F40093560219
:1004F00010935702E4E0F0E0E615F70521F40093CD
:100500005802109359027BD1A6E2B2E00E94200467
:10051000E4E0F0E06E167F060CF444C06624772415
:1005200000240A140B04B1F4D601E0E0F0E00E94CC
:100530002A040E2EA0915602B0915702E0E0F0E09E
:100540000E942A04E02131F0A0915802B091590292
:10055000109709F00CC0D9984DD13ED1A4EBB1E071
:10056000E9D059D1A4ECB9E00E9420041AC0D9986E
:10057000DA98DB9AD898959855D1A5ECB1E0DAD005
:10058000A4ECB9E00E942004AA24BB24CC24DD24DE
:10059000E0E0E0935602E0935702E0935802E093C4
:1005A00059029CD075CF9AD0A0915A02B0915B02AB
:1005B0001197D9F5DB9ADA9821DE8F010DD1A7EDDD
:1005C000B1E00ED1A7EEB1E0B5D0E1E0F0E0E01788
:1005D000F10741F414D19398E2E0F0E0E0935A027D
:1005E000F0935B02E1E0F0E0E017F10729F0ECE0C6
:1005F000F0E0E017F10709F417C014D1A5EFB1E05E
:10060000EFD0A6E0B2E096D0E3E0F0E0FA93EA9310
:10061000E4E6F0E0FA93EA93A4E6B0E095DEA8EB16
:10062000BBE00E9420045AD0BFCFA0915A02B091E3
:100630005B02129701F5939AF5D0A3E1B2E0D0D016
:10064000A2E2B2E077D0A0E2BEE40E942004EAD0A9
:10065000A6E3B2E0C5D0A5E4B2E06CD0DB98DA9AAC
:10066000959AA4E0B0E08ADEA0EDB7E00E942004F5
:100670009598D1D0DACF08CFFFCFAA93E8B3EF7027
:10068000AE2FE881E07FEA2BE8BB8DE08A95F1F799
:10069000C29A8DE08A95F1F7C2988DE08A95F1F7BC
:1006A00095C0AA93A881E9DFE881E295E883A88153
:1006B000E4DF85E88A95F1F789C0AA93E881F0E044
:1006C000E45AFD4FE081A981AE0FEBDFE981E093B1
:1006D0006002E881E093610222960895A2E0A4D02E
:1006E000ACE0DFDFA1E0A0D0E0E0E0936102E093C6
:1006F00060020895AA93A881AA3031F0E0916202C5
:10070000A0916002AE1760F0E0E0EA93A091610270
:10071000AF5FA0936102D1DFA881AA3009F456C06F
:10072000E0916002EF5FE0936002C09AA881B9DFB8
:10073000C0984CC0BA93AA931A93A981BA81ED913B
:10074000A983BA831E2FE03019F0A12FD3DFF5CF94
:1007500010C0BA93AA931A93E981FA813196E9837A
:10076000FA833197E4911E2FE03019F0A12FC2DFF8
:10077000F3CF188123960895AA93E7B3E06FE7BB00
:10078000BA9AB89AB99AC298C098C198E881E09389
:100790006202E058E0935E02E881E054E0935F0279
:1007A000A4E1B0E00E94200444D043D042D0A0E2B3
:1007B00064DF88EC90E00197F1F7A8E272DFA4E033
:1007C00070DFA5E86EDFA6E06CDF88DF2196089574
:1007D000A2E3B0E00C942004E0E0EA93A0E06DCF47
:1007E000A9DFE0E0EA93A1E068CFA4DFA0EDB7E0E5
:1007F0000C942004A4E0B0E00E94BE016FCFE1E0C1
:10080000F0E0FA93EA93E4E6F0E0FA93EA93A4E6E0
:10081000B0E00C94A401E1E0F0E0E0935A02F09320
:100820005B0208955BDFD8CF3CDFA3E0B0E00C941F
:100830002004A0E322DF88EC90E00197F1F708950F
:10084000109639F080ED97E00197F1F7A895119790
:10085000C9F70895EA17FB07E1E009F0EE270895CC
:00000001FF
