:0A0000000C94B4000C9400000C9462
:10000A0000000C9400000C9400000C9400000C9466
:10001A0000000C9400000C9400000C9400000C9456
:10002A0000000C9400000C9400000C9400000C9446
:10003A0000000C9400000C9400000C9400000C9436
:10004A0000000C9400000C94000000000000000066
:10005A000000000031003200330034003500360061
:10006A003700380039003000202046696E616C2064
:10007A0050726F6A656374200048616D69616E2011
:10008A004768617A69706F6F720048616D69616E65
:10009A007C4768617A69706F6F72002020206174F2
:1000AA0074656E74696F6E21202020004D6573732C
:1000BA00616765207265636569766564005072657B
:1000CA00737320746865206B6579203100427574FA
:1000DA00746F6E203120686173206E6F74006265E0
:1000EA00656E2070726573736564002020576169BC
:1000FA0074696E6720666F72202000202020206DB0
:10010A0065737361676521202020200080C00A0082
:10011A000400540011006001720011007101830093
:10012A001100820172001100930194001100A401D0
:10013A00A5001100B501B6001000C601C7001100E4
:10014A00D601D7000D00E701E8001000F401F50020
:10015A001100040205010200190216010000F894B8
:10016A00EE27ECBBF1E0FBBFEBBFE5BF8DE0A2E001
:10017A00BB27ED938A95E9F780E094E0A0E6ED933A
:10018A000197E9F7E8E1F1E085919591009761F02F
:10019A00A591B59105901590BF01F00105900D92BA
:1001AA000197E1F7FB01F0CFEFE5EDBFE4E0EEBF29
:1001BA00C0E6D1E00C948201AB9AAC9AAD9AAE98A3
:1001CA00989903C0E3E0F0E00895999903C0E2E04A
:1001DA00F0E008959A9903C0E1E0F0E00895AB9A3F
:1001EA00AC9AAD98AE9A989903C0E6E0F0E008950B
:1001FA00999903C0E5E0F0E008959A9903C0E4E014
:10020A00F0E00895AB9AAC98AD9AAE9A989903C06B
:10021A00E9E0F0E00895999903C0E8E0F0E0089574
:10022A009A9903C0E7E0F0E00895AB98AC9AAD9ACA
:10023A00AE9A999903C0E0E0F0E008959A9903C054
:10024A00EAE0F0E00895ECE0F0E00895BA93AA93AA
:10025A00E1E0F0E02F01EC81FD81E415F50574F091
:10026A00AF9AAA81BB810E94F302AF98A881B98193
:10027A000E94F302F20131962F01EDCF26960895DE
:10028A00BA93AA9344245524E881F981E415F50523
:10029A00A4F0D89A7FD1D99A7DD1DA9A7BD1DB9A08
:1002AA0079D1D89877D1D99875D1DA9873D1DB9862
:1002BA0071D1F20131962F01E7CF01C1EAE0F0E0F6
:1002CA00FA93EA93EEE1F0E0FA93EA93AEE1B0E052
:1002DA00BDDF64D1A0E6B1E065D1A1E7B1E067D1A5
:1002EA00F0D0A4EFB1E00E94F30258D1A2E8B1E045
:1002FA0059D1A3E9B1E05BD108950DE010E0EFE038
:10030A00EABBE0E0EBBBE7BBE8BBE8EFE4BBE7E056
:10031A00E5BBE0E2E1BBE0E0E2BBE3BFE2BFECBF8A
:10032A00EFBDEEBDEDBDECBDE7BDE6BDEBBDEABD83
:10033A00E9BDE8BDE2BDE5BDE4BDE3BDE9BFE5BF9A
:10034A00E4BFEAB9E0E8E8B9E0E0E0BFE6B9EDB950
:10035A00E6BFA0E1F3D066247724B3D0AFDFA4E0F0
:10036A00B0E08EDFAED0839905C0E0E0E0931502DD
:10037A00E0931602839B06C0E1E0F0E0E0931502E9
:10038A00F0931602E0911702F0911802A09115025B
:10039A00B0911602EA17FB0749F093D0E0911502D3
:1003AA00F0911602E0931702F093180283994DC058
:1003BA00F5D0A4EAB1E0F6D0A5EBB1E0FDD0ECE2CD
:1003CA00F1E0FA93EA93ACE2B1E040DFA4E0B0E0F6
:1003DA0057DFA8EEB3E00E94F30273D0DFD0A6EC99
:1003EA00B1E09BD0E9DE8F01E1E0F0E0E017F10730
:1003FA0061F4EAE0F0E0FA93EA93E2E3F0E0FA93D8
:10040A00EA93A2E3B0E022DF20C0E1E0F0E0E017E7
:10041A00F10729F0ECE0F0E0E017F10709F414C065
:10042A0050D0BCD0A6EDB1E0BDD0A7EEB1E0C4D0AB
:10043A00E4E6F0E0FA93EA93A4E6B0E007DFA8EB7B
:10044A00BBE00E94F3023DD0C9CF839B07C0A6D070
:10045A00A4EFB1E0A7D0A4E0B2E05FD084CFFFCF91
:10046A00AA93E8B3EF70AE2FE881E07FEA2BE8BBEE
:10047A008DE08A95F1F7C29A8DE08A95F1F7C298D4
:10048A008DE08A95F1F784C0AA93A881E9DFE88113
:10049A00E295E883A881E4DF85E88A95F1F778C0D8
:1004AA00AA93E881F0E0E75EFD4FE081A981AE0FF3
:1004BA00EBDFE981E0931D02E881E0931E022296B8
:1004CA000895A2E07FD0ACE0DFDFA1E07BD0E0E0DE
:1004DA00E0931E02E0931D020895AA93A881AA3010
:1004EA0031F0E0911F02A0911D02AE1760F0E0E02A
:1004FA00EA93A0911E02AF5FA0931E02D1DFA881EA
:10050A00AA3009F445C0E0911D02EF5FE0931D0295
:10051A00C09AA881B9DFC0983BC0BA93AA931A932C
:10052A00A981BA81ED91A983BA831E2FE03019F00F
:10053A00A12FD3DFF5CF188123960895AA93E7B3A5
:10054A00E06FE7BBBA9AB89AB99AC298C098C198AC
:10055A00E881E0931F02E058E0931B02E881E0542F
:10056A00E0931C02A4E1B0E00E94F30230D02FD045
:10057A002ED0A0E275DF88EC90E00197F1F7A8E2AF
:10058A0083DFA4E081DFA5E87FDFA6E07DDF99DFD6
:10059A0021960895A2E3B0E00C94F302E0E0EA9316
:1005AA00A0E07ECFBADFE0E0EA93A1E079CFB5DF41
:1005BA00A0EDB7E00C94F302B0DFE3E0F0E0FA93C9
:1005CA00EA93089561DFA3E0B0E00C94F302A0E39C
:1005DA0047DF88EC90E00197F1F70895109639F01B
:1005EA0080ED97E00197F1F7A8951197C9F708955B
:00000001FF
